:020000040800F2
:10000000D82000203D090008590900085D090008B2
:10001000610900086509000869090008000000007E
:100020000000000000000000000000006D09000852
:10003000710900080000000075090008CB040008E1
:10004000790900087D090008810900088509000870
:10005000890900088D090008910900089509000820
:10006000990900089D090008A1090008A5090008D0
:10007000A9090008AD090008B1090008B509000880
:10008000B9090008BD090008C10900080000000006
:10009000000000000000000000000000C50900088A
:1000A000C9090008CD090008D1090008D5090008D0
:1000B000D9090008DD090008E1090008E509000880
:1000C000E9090008ED090008F1090008F509000830
:1000D000F9090008FD090008F1020008000000000D
:1000E000010A0008050A0008090A000800000000CB
:1000F0000000000000000000000000000D0A0008E1
:1001000000000000110A0008150A0008190A00087A
:1001100000000000000000000000000000000000DF
:100120001D0A0008210A0008250A0008290A0008FB
:100130002D0A000800000000000000000000000080
:10014000000000000000000000000000310A00086C
:10015000350A0008390A00083D0A0008410A00086B
:10016000450A0008490A00080000000000000000DD
:10017000000000000000000000000000000000007F
:10018000000000004D0A0008000000000000000010
:10019000510A0008550A0008012110F01F02914081
:1001A0007B4A40B2400942F82010704740B2002814
:1001B00008D50901774A40B210F00F00104400F84A
:1001C000041C03E00901744A40B21154704780B521
:1001D0007248006850F40030704908607048006848
:1001E00050F001006E4908606E48006850F0200031
:1001F0006C4908606B48006850F0800069490860ED
:100200006948006850F4EE40674908606748006834
:1002100050F02000654908606448006850F0800094
:100220006249086042F20C0061490860002061499F
:1002300008608B20604908605D48006850F020002D
:100240005B49086000212620FFF7B0FF2620FFF75A
:10025000A3FF01BD0022C9B2652901DBFF2025E013
:10026000564A1170002205E0D2B2815C544BD2B2E2
:100270009954521C1100514B1B78C9B29942F3D3C7
:1002800000220EE04F4800680006FBD54C48D2B271
:10029000805C4D49086049480078401E4749087015
:1002A000521C464800780028ECD1002070470022FC
:1002B000C9B2652901DBFF2019E0404A1170002115
:1002C000424A1170002205E0D2B2815C3C4BD2B2AE
:1002D0009954521C1100394B1B78C9B29942F3D37F
:1002E0003348006850F080003149086000207047B2
:1002F00034480068800611D5334800683449354ACF
:100300001278885433480078401C324908703148CC
:100310000078642802DB00202E4908702948006814
:10032000000626D522480068000622D52448274921
:100330000978405C2449086024480078401C23491F
:100340000870224800781D490978884211D300209E
:100350001E4908700020194908701548006830F0DF
:100360008000134908601248006850F040001049AE
:10037000086014480068400609D50D48006840062A
:1003800005D50B48006830F0400009490860704707
:1003900000E100E018ED00E000E400E04038024039
:1003A00030380240000002402000024008000240B5
:1003B0000C4400401044004008440040CD000020A0
:1003C000640000200044004004440040CC000020B1
:1003D00000000020CB00002010F007015848006802
:1003E0004FF6FF021040574A52EA01210843544990
:1003F0000860704740B2002808D50901524A40B24F
:1004000010F00F00104400F8041C03E009014F4AEB
:1004100040B21154704780B5411EB1F1807F01D3C5
:1004200001200EE0401E4A4908600F215FF0FF30B6
:10043000FFF7E0FF002047490860072046490860B1
:10044000002002BD80B50720FFF7C6FF4FF47A50A9
:10045000FFF7E1FFFFF7BBFE00F0AEF800F0DAF8BF
:1004600000F03DF81E213D48FFF7F4FE00F0C6F80D
:10047000012804D119213A48FFF719FF03E0172199
:100480003848FFF714FF38480078002813D00020C0
:100490003549087035480078401C344908703348A5
:1004A0000078142805DB002030490870012030490D
:1004B000087000F0B6F82E4800780028E3D000203D
:1004C0002B49087000F018F8DDE72A48006890F41E
:1004D00000402849086001202349087070472648D9
:1004E000006850F00800244908602448006850F073
:1004F000AA4022490860704780B52148007800284A
:1005000019D120480078012815D11F480078401CD7
:100510001D4908701C48007805280CDB00201A498A
:1005200008701448006890F4805012490860112146
:100530001648FFF7BCFE124800781249087001BD4A
:100540000CED00E00000FA0518ED00E000E400E02A
:1005500014E000E018E000E010E000E0900800087F
:10056000B008000810090008D0000020CF000020CB
:10057000CE000020140C024030380240000C024033
:10058000C8000020C9000020D10000202809000870
:1005900080B5010000205FF40020144A106051F083
:1005A0008000C0B200F0CAF8002000F0C7F80821AF
:1005B0000E4A1160C0B202BD80B50D48006850F00F
:1005C00010000B4908600B48006850F040000949D2
:1005D00008600948006850F080000749086008205A
:1005E0000249086000F052F801BD000018100240F6
:1005F00030380240001002400810024080B5002050
:100600000F20FFF7C5FFC0B2D42801D1012000E0C0
:10061000002002BD1948006850F001001749086029
:10062000704717480068C0070CD516480078401C72
:10063000144908701348007815280FDB142011495D
:1006400008700BE00F480078401E0E4908700D48F6
:100650000078152802DB00200A4908700948007854
:10066000122803DB01200849087006E005480078DD
:10067000032802DA0020044908707047303802402D
:1006800010000240CA000020C80000203448006862
:1006900050F48050324908603248006850F0010040
:1006A000304908603048006850F400602E49086006
:1006B0002D48006850F400502B4908602A48006813
:1006C00050F4004028490860284800682849084339
:1006D000264908602748006850F4006025490860F2
:1006E0002448006850F400502249086021480068FE
:1006F00050F400401F4908601F48006850F038005F
:100700001D4908601C48006850F480701A49086050
:100710001948006850F400701749086016480068CE
:1007200050F0040014490860002014490860124881
:10073000006850F0400010490860704700211049DF
:1007400009688907FBD5C0B20E4908600C480068EB
:10075000C007FBD50B4801680800C0B27047000015
:10076000443802403038024000000240200002407D
:1007700000005055080002400030014004300140A4
:10078000083001400C3001401248006850F47000FD
:10079000104908601048006850F001000E490860D8
:1007A00000200E4908600C4800680D4908400A49BD
:1007B00008600C480C4908600748006830F4802045
:1007C000054908600020094908605FF00060084999
:1007D0000860704788ED00E00038024008380240A9
:1007E000FFFFF6FE10300024043802400C380240AF
:1007F00008ED00E019E050F8041BCB0744BFA9F155
:1008000001035918121F0023042A41F8043BF9D2AE
:100810005FEA827C0B4604D54FF0000CA1F800C0C3
:100820009B1CD10744BF0021197050F8042B002AEB
:10083000E1D1704710B5074979441831064C7C4422
:10084000163404E00A68081D114488470146A14295
:10085000F8D110BD2C000000380000004EF6885181
:10086000CEF20001086840F470000860BFF34F8FBB
:10087000BFF36F8F4FF00070E1EE100A7047000079
:1008800075FFFFFFD4000000000000200000000002
:1008900046343131204F70656E696E6720506C654B
:1008A00061736520776169742E2E2E0D0A00000099
:1008B0004759524F203A204C334744323020466F3C
:1008C000756E642E2E2E0D0A0000000000F00BF84D
:1008D000002801D0FFF7AEFF0020C046C046FFF75A
:1008E000B1FD00F002F80120704700F001B80000EF
:1008F0000746384600F002F8FBE7000080B5C04626
:10090000C046024A11001820ABBEFBE726000200D9
:100910004759524F203A204E6F6E6520466F756ED4
:10092000642E2E2E0D0A000047656C2042656E690C
:1009300020414C2E2E2E0D0A000000000148804759
:1009400001480047890700084D090008C046C04615
:10095000FFF784FFFFF7BAFFFFF7FEBFFFF7FEBF09
:10096000FFF7FEBFFFF7FEBFFFF7FEBFFFF7FEBFBB
:10097000FFF7FEBFFFF7FEBFFFF7FEBFFFF7FEBFAB
:10098000FFF7FEBFFFF7FEBFFFF7FEBFFFF7FEBF9B
:10099000FFF7FEBFFFF7FEBFFFF7FEBFFFF7FEBF8B
:1009A000FFF7FEBFFFF7FEBFFFF7FEBFFFF7FEBF7B
:1009B000FFF7FEBFFFF7FEBFFFF7FEBFFFF7FEBF6B
:1009C000FFF7FEBFFFF7FEBFFFF7FEBFFFF7FEBF5B
:1009D000FFF7FEBFFFF7FEBFFFF7FEBFFFF7FEBF4B
:1009E000FFF7FEBFFFF7FEBFFFF7FEBFFFF7FEBF3B
:1009F000FFF7FEBFFFF7FEBFFFF7FEBFFFF7FEBF2B
:100A0000FFF7FEBFFFF7FEBFFFF7FEBFFFF7FEBF1A
:100A1000FFF7FEBFFFF7FEBFFFF7FEBFFFF7FEBF0A
:100A2000FFF7FEBFFFF7FEBFFFF7FEBFFFF7FEBFFA
:100A3000FFF7FEBFFFF7FEBFFFF7FEBFFFF7FEBFEA
:100A4000FFF7FEBFFFF7FEBFFFF7FEBFFFF7FEBFDA
:080A5000FFF7FEBFFFF7FEBF38
:040000050800094D99
:00000001FF
